S010000070726F6A656B74322E73726563E3
S11300000C9472000C9494000C9494000C9494003E
S11300100C9494000C9494000C9494000C9494000C
S11300200C9494000C9494000C9494000C949400FC
S11300300C9494000C9494000C9494000C949400EC
S11300400C9494000C9494000C9494000C949400DC
S11300500C9494000C9494000C9494000C949400CC
S11300600C9494000C94F6000C9494000C9494005A
S11300700C9494000C9494000C9494000C949400AC
S11300800C9494000C9494000C9494000C9494009C
S11300900C9494000C9494000C9494000C9494008C
S11300A00C9494000C9494000C9494000C9494007C
S11300B00C9494000C9494000C9494000C9494006C
S11300C00C9494000C9494000C9494000C9494005C
S11300D00C9494000C9494000C9494000C9494004C
S11300E00C94940011241FBECFEFD1E2DEBFCDBF2C
S11300F000E00CBF12E0A0E0B2E0EEEDF4E000E0BE
S11301000BBF02C007900D92A030B107D9F71BBEF8
S113011012E0A0E0B2E001C01D92A430B107E1F703
S11301200E94C9000C946D020C9400008FEF84B9F6
S1130130089585B90895883060F443B121E030E032
S1130140B90102C0660F771F8A95E2F7CB01842BB1
S113015085B90895883068F443B121E030E0B901ED
S113016002C0660F771F8A95E2F7CB01809584233E
S113017085B90895883060F443B121E030E0B901D5
S113018002C0660F771F8A95E2F7CB01842785B9F1
S1130190089560E875E280E090E048E02FE401E033
S11301A00E9457010E9496007894FFCF813381F416
S11301B0623371F4433341F4243331F481E00E9417
S11301C0BA0021E030E00BC0433311F4243331F0A2
S11301D087E00E94BA0020E030E001C00895822F39
S11301E0932F089585E00E94BA0008951F920F92FC
S11301F00FB60F920BB60F9211241F932F933F93B8
S11302004F935F936F937F938F939F93AF93BF931A
S1130210CF93DF93EF93FF938091000290910102BB
S11302208130910521F40E94C9010E94F20080915D
S11302300002909101020097B9F40E94C901182F9D
S11302400E94C901D82F0E94C901C82F0E94C90168
S1130250282F812F6D2F4C2F0E94D60090930302DC
S1130260809302020E94E8018091020290910302AD
S11302708130910531F481E090E090930102809304
S11302800002FF91EF91DF91CF91BF91AF919F91C8
S11302908F917F916F915F914F913F912F911F911A
S11302A00F900BBE0F900FBE0F901F901895CF921A
S11302B0DF92EF92FF920F93DC01CB010F2EF2E954
S11302C0CF2EFFEFDF2EFFEFEF2EFFEFFF2EF02DEF
S11302D0C80ED91EEA1EFB1E33E9C31631ECD30641
S11302E031E0E30630E0F30608F049C0453008F495
S11302F046C0493008F043C030E23093C00038E1D2
S11303003093C1004550440F4093C200253431F46A
S1130310E2ECF0E020812062208307C02F3429F42E
S1130320E2ECF0E0208120632083002331F0E1EC53
S1130330F0E020812068208304C0E1ECF0E020811B
S11303402083880F991FAA1FBB1F880F991FAA1FFC
S1130350BB1F9C01AD01220F331F441F551F220FE9
S1130360331F441F551F60E074E284EF90E00E9445
S11303700602215030402093C4003093C5000F91F1
S1130380FF90EF90DF90CF9008958091C000807827
S11303900895E0ECF0E080818823ECF78091C600BA
S11303A00895E0ECF0E0908195FFFDCF8093C600C6
S11303B00895CF93DF93EC018881882331F021964F
S11303C00E94D10189918823D9F7DF91CF910895B3
S11303D0CF93DF93CDB7DEB727970FB6F894DEBF80
S11303E00FBECDBFBE016F5F7F4F4AE050E00E9459
S11303F02802CE0101960E94D90127960FB6F894DF
S1130400DEBF0FBECDBFDF91CF910895A1E21A2EBA
S1130410AA1BBB1BFD010DC0AA1FBB1FEE1FFF1FA4
S1130420A217B307E407F50720F0A21BB30BE40BF4
S1130430F50B661F771F881F991F1A9469F760953B
S11304407095809590959B01AC01BD01CF010895F5
S1130450FB019F01E8944230C4F04532B4F44A30C1
S113046029F497FB1EF4909581959F4F642F77276D
S11304700E945902805D8A330CF0895D8193CB011F
S11304800097A1F716F45DE251931082C9010C9410
S11304904902DC01FC01672F71917723E1F7329760
S11304A004C07C916D9370836291AE17BF07C8F34B
S11304B00895AA1BBB1B51E107C0AA1FBB1FA617A7
S11304C0B70710F0A61BB70B881F991F5A95A9F7F9
S11104D080959095BC01CD010895F894FFCF5E
S9030000FC
